:020000040800F2
:10000000300A0020C10100082F4100089B38000879
:100010002D410008AD0D0008194400080000000043
:100020000000000000000000000000005143000834
:10003000D10E0008000000003141000853430008C1
:10004000DB010008DB010008DB010008DB01000820
:10005000DB010008DB010008890F0008DB01000854
:10006000DB010008DB010008DB010008DB01000800
:10007000DB010008DB010008DB010008DB010008F0
:10008000DB010008DB0100081D030008DB0100089C
:10009000DB010008DB010008DB010008DB010008D0
:1000A000DB010008DB010008DB010008DB010008C0
:1000B000DB010008DB010008DB010008DB010008B0
:1000C000DB010008DB010008DB010008DB010008A0
:1000D000DB010008DB010008DB010008DB01000890
:1000E000DB010008DB010008DB010008DB01000880
:1000F000DB010008DB010008DB010008DB01000870
:10010000DB010008DB010008DB010008DB0100085F
:10011000DB010008DB010008DB010008DB0100084F
:10012000DB010008DB010008DB010008DB0100083F
:10013000DB010008DB010008DB010008DB0100082F
:10014000B10D0008DB010008DB010008DB0100083D
:10015000DB010008DB010008DB010008DB0100080F
:10016000DB0100089D380008DB010008DB01000806
:10017000DB010008DB010008DB01000800000000D3
:10018000DB010008DB010008DB010008DB010008DF
:10019000DB010008DB010008DB010008DB010008CF
:1001A000DB010008DB010008DB010008DFF80CD0F0
:1001B00000F0A2F8004800478D4A0008300A0020ED
:1001C0000648804706480047FEE7FEE7FEE7FEE7F1
:1001D000FEE7FEE7FEE7FEE7FEE7FEE7FD43000879
:1001E000AD0100082DE9F05F0546002092469B46D0
:1001F00088460646814640241BE02846414647463D
:10020000224600F069F853465A46C01A914110D36D
:1002100011461846224600F050F82D1A67EB0108E7
:100220004F4622460120002100F047F817EB000955
:100230004E41201EA4F10104DFDC484631462A4627
:100240004346BDE8F09F40EA01039B0703D009E065
:1002500008C9121F08C0042AFAD203E011F8013BB2
:1002600000F8013B521EF9D27047D2B201E000F80B
:10027000012B491EFBD270470022F6E710B513464A
:100280000A4604461946FFF7F0FF204610BD30B578
:100290000B46014600202022012409E021FA02F544
:1002A0009D4205D303FA02F5491B04FA02F52844DE
:1002B000151EA2F10102F1DC30BD202A04DB203A38
:1002C00000FA02F1002070479140C2F1200320FAA9
:1002D00003F3194390407047202A04DB203A21FAA7
:1002E00002F00021704721FA02F3D040C2F120024F
:1002F0009140084319467047064C074D06E0E068F8
:1003000040F0010394E8070098471034AC42F6D35C
:10031000FFF750FFF47600081477000810B5044882
:1003200000F0CFFFBDE81040024800F0CABF000057
:10033000B0000020F8000020464910B54A6822F4B9
:1003400040324A604A6843681A434A6001684A6812
:1003500022F480724A6001684A68036942EA032213
:100360004A6001684A6822F040724A6001684A683F
:1003700083681A434A6001688A6822F400628A60CE
:1003800001688A68C3681A438A60816A6FF0706284
:10039000D14201688A6822F070628A6001688A68C6
:1003A0000CD0836A1A438A6001688A6822F040523E
:1003B0008A6001688A68C36A1A4301E022F04052E9
:1003C0008A6001688A6822F002028A6001688A688D
:1003D000037E42EA43028A6090F8201000290168F7
:1003E0004A680FD042F400624A6001684A6822F409
:1003F00060424A6001684A68174C436A04EB433321
:100400001A4301E022F400624A600168CA6A22F4D9
:100410007002CA620168CA6A838B104C04EB0353F2
:100420001A43CA6201688A6822F400728A6001680D
:100430008A6890F8303042EA43228A6001688A680C
:1004400022F480628A6001688A68406942EA8020FA
:10045000886010BD0023014000E0FFFF0000F0FFB6
:100460007CB5054600F01CFA044600F013FA02467B
:100470000020CDE900050748074B006800EB80012C
:1004800001EBC00103EB81012346C96D00F030FE92
:100490007CBD00005C000020DC0300200A4B30B46F
:1004A0001B6803EB4304094B03EB84039B68DD8863
:1004B0001C689B88DB1DDB08203A13FB02F205FB5E
:1004C000024230BC00F006BD5C000020F4040020B5
:1004D000034840688068002800D00047704700004B
:1004E0005C0000202DE9F0470446002799468A4623
:1004F0001546B846104601E008F1010810F8011B46
:100500000029F9D100F0C6F9254A264E4B4611685C
:10051000B9F1010F01EB410106EB8101896889887E
:10052000B0FBF1F002D0022B0BD105E0A0EB0800EC
:10053000484304EB500003E0A0EB080000FB01403F
:1005400084B2904600F0A6F90146D8F8000000EB0E
:10055000400006EB80008068808807FB101189B29C
:10056000814213D3012012E051462046FFF796FF47
:10057000D8F800007F1C00EB400006EB8000BFB203
:1005800080686D1C8088204484B2DBE700202A78D4
:100590000AB1012100E000210842E5D1BDE8F08761
:1005A0005C000020F40400202DE9FF5F8246032058
:1005B0008946A0EB42080025144678E03E4E3F4FA6
:1005C000A9EB040B30681FFA8BF100EB400057F8E1
:1005D00020200AEB0500039080B200F097F8306805
:1005E0001FFA8BF100EB400057F82020AAEB050022
:1005F000029080B200F08AF83068A9EB050B00EB9E
:1006000040001FFA8BF157F820200AEB04000190FC
:1006100080B200F07BF830681FFA8BF100EB4000ED
:1006200057F82020AAEB0400009080B200F06EF88A
:10063000306809EB040B00EB40001FFA8BF157F810
:100640002020039880B200F061F830681FFA8BF127
:1006500000EB400057F82020029880B200F056F8D6
:10066000306809EB050B00EB40001FFA8BF157F8DF
:100670002020019880B200F049F830681FFA8BF111
:1006800000EB400057F82020009880B200F03EF8C0
:10069000B8F1000F04DA08EB850000F1060805E068
:1006A000291B08EB810000F10A08641E6D1CA5429D
:1006B00084D9BDE8FF9F00005C000020F404002006
:1006C0007CB514460D46064600F0E4F800FB0561D3
:1006D0000C480D4B006800EB800202EBC00203EBFC
:1006E000820203F58C73D26D02EB810100EB4002B4
:1006F00053F822200023CDE900320123224600F0E6
:10070000F7FC7CBD5C000020DC03002070B51446C3
:100710000D46064600F0BEF8074905FB0060096873
:1007200001EB810202EBC101044A02EB8101C96DB8
:1007300041F8204070BD00005C000020DC03002078
:100740002DE9F0411C4616460D460746FFF7B8FF57
:10075000281981B232463846FFF7B2FF22462946B1
:10076000384600F009F8B81922462946BDE8F0419C
:1007700080B200F001B800007CB516460C46054674
:1007800000F088F800FB04500E4D296801EB81024F
:1007900002EBC1010C4A02EB8101C96D01EB80043F
:1007A00000F078F82D68094A05EB4501401E52F823
:1007B00021103346CDE9000101222146284600F0F0
:1007C00097FC7CBD5C000020DC030020F4040020CA
:1007D0002DE9F74FDFF8B4900F4690460321D9F882
:1007E0000000A1EB4806DFF8A8A000EB400182B0B2
:1007F000002415465AF8210000F09AF94FF6FF7BC5
:1008000031E08DB1381981B202980BEA4502401BE4
:100810000090019280B2FFF753FF381B81B2DDE9EF
:10082000000280B2FFF74CFF8CB1781B81B20298B6
:100830000BEA4402001B0090019280B2FFF740FFD8
:10084000781981B2DDE9000280B2FFF739FF002E8E
:1008500003DA06EB8406B61D04E0601B06EB800697
:100860006D1E0A36641CAC42CBD9D9F8000000EBEF
:1008700040015AF8210000F05BF9029805B04246A9
:100880003946BDE8F04FFFF78FBE00005C00002046
:10089000F404002001484068806A00475C000020A2
:1008A00001484068C06A00475C00002070B5214CD8
:1008B0001F4800252060092060610120A0611D20E3
:1008C000E0610320206240F20D10606240F24310AC
:1008D000A06240F21710E06240F24710206384F8F3
:1008E000365084F8345004F1E80084F8355008217B
:1008F0000160C021016104218161C903416202F0EC
:10090000CDF86560A560E560256100F059F82046E6
:1009100001F000FF0949084848600068804700F07E
:1009200013F90648083000F0F5F8002070BD00000B
:1009300000680140DC030020780000205C000020FB
:1009400070B58EB000240E4605460094FFF7A2FF56
:10095000CDE90104FFF7A4FF0996CDE90304FF20C8
:10096000CDE905048DF830408DF831408DF83240E6
:100970004FF4C060079007200890FFF78BFF0A90A4
:10098000FFF78EFF0B902A4669460A4801F080FE69
:10099000094905EB450001EB8002631E5360074BDC
:1009A00093604FF07F4241F82020024801F09AFE08
:1009B0000EB070BDDC030020F404002064000020B1
:1009C00030B5434887B00021026842F0806202607F
:1009D000006800F0806005903D481438026842F4D9
:1009E00000020260026802F400020592026842F00E
:1009F00001020260026802F001020592026842F000
:100A000002020260026802F002020592026842F0ED
:100A100004020260026802F004020592026842F0D9
:100A200008020260026802F008020592026842F0C1
:100A300020020260026802F020020592026842F081
:100A400040020260006800F04000059041F6580046
:100A500000900220CDE9010103900E200490694628
:100A60001C4801F025FB4FF470601B4C0090694658
:100A7000204601F01DFB4FF498600090694617482E
:100A800001F016FB482000906946154801F010FB64
:100A9000201500906946134801F00AFB4FF40C60E2
:100AA000114D00906946284601F002FB032000909A
:100AB000092004906946204601F0FAFA4FF4A0504C
:100AC00000906946284601F0F3FA07B030BD0000F7
:100AD0004438024000000240000402400008024086
:100AE000000C024000140240001802400149086056
:100AF000704700005C0000200449054A096801EBCA
:100B0000410102EB81014860704700005C00002059
:100B1000F40400200449054A096801EB410102EB95
:100B200081018860704700005C000020F404002010
:100B30000349044A096801EB410142F8210070476A
:100B40005C000020F404002070B51B481949042300
:100B5000016000F13401022207248B60C1E9002406
:100B6000C1E903424A618A611021C0E90331402191
:100B7000416101260024C0E901644FF4C071C0E95D
:100B800006149102C0E9081489008162214600F030
:100B90005BF809490848343102F032FB074D08B1CF
:100BA0002E7000E02C7040F26A5000F009F82878AE
:100BB00070BD0000400100A0CC05002074000020A2
:100BC0002DE9F84F1F4C0025012608270095C4E9A0
:100BD0000067C4E9026582464FF6FF7921464A461E
:100BE000A1F1500002F040FB012001F00DF90220BC
:100BF000C4E90007C4E9026521464A46A1F1500054
:100C000002F032FB03204FF00408E56084E8810124
:100C100021464A46A1F1500002F026FB4FF40C7029
:100C20000090C4E90260C4E9008721464A46A1F168
:100C3000500002F019FB5146A4F15000BDE8F84FF6
:100C400002F001BB1C06002030B587B005007DD046
:100C50004D480024016841F00101016000684A49E3
:100C600000F0010008390590086840F48000086031
:100C7000086800F480000590086840F002000860F1
:100C8000086800F002000590086840F00400086061
:100C9000086800F004000590086840F0080008604B
:100CA000086800F008000590086840F0100008602F
:100CB000086800F010000590086840F02000086007
:100CC000086800F020000590086840F040000860C7
:100CD0000868694600F0400005900220CDE9024016
:100CE00001900C20049060200090284801F0E0F969
:100CF000012000906946264801F0DAF94CF20370B1
:100D000000906946234801F0D3F94FF683700090B4
:100D10006946214801F0CCF94FF63F000090694642
:100D20001E4801F0C5F948F23310009069461C488E
:100D300001F0BEF91B498020C1E901408000C86074
:100D40004000086180004861800000E01AE0C1E9CD
:100D50000604C000C1E908040320C1E90A041248DE
:100D60000C630860296308468D6300F0B1FF0D48ED
:100D700000F0E0FF00220F21382001F025FE38208E
:100D800001F014FE07B030BD3838024000040240C4
:100D900000080240000C0240001002400014024013
:100DA000001802400C05002010640240FEE700001D
:100DB000014800F068BC000040010020F0B5046864
:100DC000059E656C46EA034305F040451D43656496
:100DD0000368DA634268B2F5403F02D00068C16040
:100DE000F0BD01F47F4201F47F0C866801F07F437F
:100DF00001F47F0701F47F45CCB242EA0C02BEB198
:100E0000012E16D001F47F02D20CC1F3C401022ED0
:100E100011D0032E14D0190F3A0D2D0B23092C01DC
:100E200044EA022242EA01321A4300688263F0BDBA
:100E30001A432243F9E7AB0A5B0143EAC22206E008
:100E4000DB0FEC0A640144EA822242EAC3320A431D
:100E5000EBE7000001681823CAB2103AB2FBF3F2C4
:100E6000054B6FF30901032A9B5CC36500D9091D7B
:100E70008165084670470000444D000810B50146E2
:100E800000208B698A6A4FF0C07453B1B3F5005FDC
:100E900015D072B1012A0CD0022A0AD0032A09D136
:100EA00004E01AB1012A06D0022A03D1C96AC90195
:100EB00000D5012010BDC96AA142FAD010BD002A98
:100EC000F7D0012AF2D0022AF3D0032AF3D010BDC2
:100ED000704700002DE9F74FDFF8A4A00026DAF8EC
:100EE000000000EB4001274800EB81008068858806
:100EF000C788E81D834620F00700401B00F0FF096B
:100F00003AE000BF4FEADB010298012901FB06002D
:100F10000BD002290BD0017842780904807841EA8D
:100F2000022141EA000800241FE0007801E0008867
:100F300040BA8046F7E7291B49440120491E8840F2
:100F400010EA080FDAF8000000EB40010D4802D06B
:100F500050F8212002E000EB8100426800980199DE
:100F6000204480B2FFF7D2FB641CAC42E3D301986B
:100F7000401C80B2761C0190BE42C3D3BDE8FE8FF8
:100F80005C000020F404002010B50D490020401C36
:100F90008842FCDB0B4C0121204601F073F9012152
:100FA000204601F06FF920B10748018831B10021D6
:100FB0000180BDE81040012001F06EB80121F7E783
:100FC00020A10700000002400000002030B5D1E958
:100FD00001231A43D1E903352B431A434B690C68AB
:100FE0001A438B691A43D1E90735012C496A046811
:100FF00007D01A432A436FF30E040A4322430260C8
:101000000AE024F4F8442B4321430B434168036076
:101010006FF30E010A434260002030BD426942EA8C
:101020004101416100207047F8B514460546D1E9F9
:10103000000210438A686FF01F03C96803EB421275
:1010400042EA412108430090286101F025F9064653
:1010500009E0601C07D024B101F01EF9801BA042FA
:1010600001D90320F8BDA8698006F2D40020F8BD9C
:10107000F0B56FF00F05D1E9003405EB04145B1EE9
:1010800023432E018C682F0306EB042423434FEAED
:10109000054C0C8A8E8ACD68097E4FF07F4E07EB97
:1010A00004440CEB06560EEB0161012A0CD0826859
:1010B0003F1107EB05352B432343334302F07042C6
:1010C0000B43134383600FE08768084A17402A03E5
:1010D000A2F580523243C5683A43234305F0704578
:1010E0000B432B438260C3600020F0BDFF0F0FFF56
:1010F0002DE9F8430E460746DDE908181248154663
:101100004FF4403242600022C0E902210F491C46E0
:10111000016000F0E7FC002814D139460A4800F0CD
:101120008FFC00280ED12B463246414606480094DB
:1011300000F0A2FD002805D1BDE8F8430A210248CD
:1011400000F012BDBDE8F8838404002000B0024026
:101150007047000078B50024009490F83C20012AE4
:1011600019D0012280F83C200A6807230568092A63
:1011700013D9EE680A3A02EB420293409E43EE60B6
:101180000B788A680A3B03EB43039A400368DD68E7
:101190002A43DA6010E0022078BD2E6902EB420299
:1011A00093409E432E610B788A6803EB43039A4079
:1011B00003681D692A431A614A681F23072A13D24C
:1011C00005686E6B521E02EB820293409E436E6373
:1011D0000A8893B20A79521E02EB82029340026897
:1011E000556B2B43536327E005680D2A12D22E6BF3
:1011F000D21F02EB820293409E432E630B790A8832
:10120000DB1F92B203EB83039A4003681D6B2A43F2
:101210001A6311E0EE6A0D3A02EB820293409E439C
:10122000EE620B790A880D3B92B203EB83039A407E
:101230000368DD6A2A43DA621B4B0568194A9D423E
:101240000AD10D68122D07D1556825F400055560A7
:10125000556845F48005556005689D421DD1134DC4
:101260000B68AB4201D0112B17D1536823F48003D4
:101270005360536843F4000353600968A9420CD1DA
:101280000B490C4A0968B1FBF2F101EB81014900FD
:1012900000E0491E00910029FBD180F83C4000206D
:1012A00078BD000000230140002001401200001022
:1012B0004000002040420F00704770470068C06C3B
:1012C000704770B50446006801684268C1F3400188
:1012D000C2F3401251B34AB3216CC90603D4216C46
:1012E00041F400712164816811F0405F17D1217EC3
:1012F000A9B9C16A11F4700F02D0816849050ED4F2
:10130000416821F020014160206C20F4807020644D
:10131000206CC00403D4206C40F0010020642046FF
:10132000FFF7CAFF21686FF01200086020680168AB
:101330004268C1F38001C2F3C01289B382B3216C49
:10134000C90603D4216C41F400512164816811F471
:10135000401F1ED1816B11F4401F02D081684905E6
:1013600017D44168490514D4816811F0405F10D149
:10137000217E71B9416821F080014160206C20F428
:1013800080502064206CC00503D4206C40F0010024
:1013900020642046FFF7DCFE21686FF00C00086037
:1013A00020680168426811F0010FC2F380120ED06C
:1013B0006AB10068C0070AD0206C40F48030206415
:1013C000204600F046F821686FF0010008602068B0
:1013D00001684268C1F34011C2F3806200290DD058
:1013E000002A0BD0616C41F0020161646FF02005AE
:1013F00005602046FFF761FF2068056070BD70B58D
:1014000004004FF0000503D0206C002610B107E067
:10141000012070BD204600F01DF8666484F83C6031
:10142000206CC00610D4206C20F4885040F00200DC
:1014300020642046FEF780FF6664206C20F00200E6
:1014400040F00100206400E0012584F83C6028465B
:1014500070BD704770B586B0044614216846FEF72B
:101460000BFF21491F4E256800231F4A143903240E
:101470001E48B54211D1156845F480751560126893
:1014800002F4807205920A6842F001020A6009685B
:1014900001F001010591042113E0154EB5421ED162
:1014A000156845F400751560126802F40072059223
:1014B0000A6842F001020A60096801F00101059121
:1014C0000221CDE900140293694600F0F1FD0022EB
:1014D0001146122001F078FA122001F067FA06B0E6
:1014E00070BD00000020014044380240000002406E
:1014F000002101402DE9F041044600680D46816855
:101500004FF0000749050BD58068C00508D5206C51
:1015100040F02000206484F83C700120BDE8F08198
:1015200000F0BAFE06460FE0681C0DD025B100F0B1
:10153000B3FE801BA84207D9206C40F00400206451
:1015400084F83C700320E9E7206800688007EBD549
:1015500021686FF012000860206C40F40070206475
:101560002068816811F0405F13D1217E89B9C16A7A
:1015700011F4700F02D0806840050AD4206C20F46A
:1015800080702064206CC00403D4206C40F0010003
:1015900020640020C2E7000018B50021009190F8F7
:1015A0003C20012A07D0012280F83C200268936881
:1015B000DB0702D011E0022018BD936843F001035D
:1015C00093602A4A2A4B1268B2FBF3F202EB420202
:1015D00000E0521E0092002AFBD102689368DB07EC
:1015E00041D0036C40F20164A34343F4807303646D
:1015F00053685B0505D5036C23F4005343F4805313
:101600000364036CDB0404D5436C23F006034364DA
:1016100000E0416480F83C1016496FF0220313602B
:1016200049680068CA06144906D088421BD18168FF
:1016300011F0405F13D016E08842F8D00F4A904274
:1016400003D1D1F80423D206F1D00D4A90420AD139
:10165000D1F8041301F01F011029E8D303E08168D9
:1016600041F080418160002018BD00004000002052
:1016700040420F00002301400020014000210140B2
:101680000022014070472DE9F05F05460068002404
:101690004669D0F804908768D0F80CB0D0F810A054
:1016A000D0F81880F10748D0F90714D001218160E3
:1016B000B80703D5284600F0BDF90CE0780702D53D
:1016C0004FF4006407E0380702D54FF4805402E07D
:1016D000284600F0AEF9F80516D529684FF4807059
:1016E0008860B80503D5284600F0A6F90CE0780517
:1016F00002D544F4005407E0380502D544F4804490
:1017000002E0284600F097F9F80316D529684FF44F
:1017100080308860B80303D5284600F08FF90CE0CC
:10172000780302D544F4004407E0380302D544F4BA
:10173000803402E0284600F080F9300707D55FEAE0
:10174000CB6004D52968102044F40074C860700789
:101750004FF0080707D55FEA0B7004D52868C7600B
:10176000284600F061F9B00706D52868C0688007F0
:1017700002D0284600F059F9700607D55FEACA6022
:1017800004D52968102044F480640861B00607D5A8
:101790005FEA0A7004D528680761284600F046F918
:1017A000F00606D528680069800702D0284600F0B8
:1017B0003EF9B00308D55FEAC96005D52968102055
:1017C0004860284600F034F9F00307D55FEA097055
:1017D00004D528684760284600F031F9300446D522
:1017E0005FEA497040D5F00504D55FEAC87001D0C2
:1017F00044F00104B00504D55FEA887001D544F0D7
:101800000204700504D55FEA487001D544F0040471
:10181000300529D518F0700F26D008F07000402848
:1018200015D006DC102809D020280AD0302816D17F
:101830000AE050280ED0602811D10EE044F00804D0
:101840000DE044F010040AE044F0200407E044F006
:10185000400404E044F0800401E044F4807428680B
:10186000816921F070018161296804204860002CA1
:1018700005D0686A204368622846FFF703FFBDE889
:10188000F09F70B5040003D094F8200010B104E07C
:10189000012070BD204600F081F82068016821F029
:1018A0000201016000F0F8FC0546052604E000F0A6
:1018B000F3FC401B0A2811D8206840688007F6D442
:1018C0002068016841F00101016000F0E5FC054677
:1018D0000BE000F0E1FC401B0A2806D9606A40F4E6
:1018E0000030606284F82060D2E720684068C0075A
:1018F000EFD0207E0128206801683DD021F08001D2
:101900000160607E01282068016838D021F0400124
:101910000160A07E01282068016833D021F02001F9
:101920000160E07E0128206801682ED041F010019E
:101930000160207F01282068016829D021F008017A
:101940000160607F01282068016824D021F0040133
:101950000160D4E902010843D4E9041211430843A9
:101960006168491E08432168C86100206062012047
:1019700084F82000002070BD41F08001C0E741F0F4
:101980004001C5E741F02001CAE721F01001CFE78F
:1019900041F00801D4E741F00401D9E710B586B061
:1019A000044614216846FEF767FC1C4920688842FB
:1019B00031D11B480021026842F080620260026857
:1019C00002F080620592026842F0007202600068D4
:1019D00000F00070059012481038026842F00202D0
:1019E0000260006800F0020005904FF44050009043
:1019F0000220CDE9010103200390092004906946EB
:101A0000084800F055FB00221146402000F0DCFFA2
:101A1000402000F0CBFF06B010BD00000068004081
:101A200040380240000402407047704770477047DA
:101A300070477047704770477047704770477047EE
:101A400070B590F83820012A24D0012680F838603B
:101A5000022280F8392000EB0112148CD36918326D
:101A600043EA04451E4C0A2B16D0092B14D0137BD5
:101A700045EA03630029016813D0CD69A5431D43DE
:101A8000CD6103681168196151680A291BD00929C1
:101A900019D01DE0022070BDD36803F07F432B43B3
:101AA000E8E74D6AA5431D434D62036811689961DB
:101AB00051680A2901D009290AD1D168026821F0A8
:101AC0007F41916204E0D168026821F07F41116298
:101AD00080F83960002180F83810084670BD000099
:101AE0000F0003FF70B5040004D094F839000025FE
:101AF00010B106E0012070BD84F83850204600F097
:101B00001FF8022084F8390020680168626821F417
:101B10004031114301602068416BA26821F0070148
:101B2000114341632068016CE2686FF30D011143BA
:101B30000164E563012084F83900002070BD0000D5
:101B400008B500680649884208D10648016841F492
:101B500000010160006800F40000009008BD000072
:101B600000B00240303802402DE9F8430026044618
:101B7000009600680D4600684FF00407C0074FF05C
:101B8000030825D000F088FB81461DE040680090E6
:101B900010F0210F0FD00098800603D5E06B40F0C5
:101BA0000200E0630098C00703D0E06B40F0010042
:101BB000E063212034E0681C06D000F06DFBA0EB50
:101BC0000900A8424DD8A5B3206841688907DDD532
:101BD0002068C169406A01F0200100F0200008433C
:101BE00035D000F059FB81462DE04068009010F0A0
:101BF000290F1FD00098000703D5E06B40F00400C8
:101C0000E0630098800603D5E06B40F00200E063DB
:101C10000098C00703D0E06B40F00100E06329208A
:101C20002168886084F8397084F838600120BDE844
:101C3000F88316E0681C06D000F02EFBA0EB09002C
:101C4000A8420ED86DB120684168C906CDD521687B
:101C500012208860012084F8390084F83860002060
:101C6000E5E754F83C0F40F0200044F8040984F8FC
:101C7000018026700320DAE738B50446049894F80A
:101C80003850012D10D0012584F83850022584F8F1
:101C9000395000902046FFF791F82068016841F024
:101CA00001010160002038BD022038BD90F83510D8
:101CB000022903D08021416501207047052180F869
:101CC00035100068016821F00101016000207047B3
:101CD00070B504002BD094F83500022826D0206877
:101CE000016821F00101016020680025056020687D
:101CF0004560206885602068C560206805612168AE
:101D0000212048612046FFF7A5F8E5632564656456
:101D1000A564E564256594F85C203F2191408160CD
:101D2000656584F8355084F83450002070BD01207A
:101D300070BD00002DE9F041044600F0ADFA064602
:101D40005CB1002584F83450022084F83500206806
:101D5000016821F0010101600DE00120BDE8F08182
:101D600000F09AFA801B052805D920206065032021
:101D700084F83500F2E720680068C007F0D12268D7
:101D8000116820480140D4E901031843D4E903361F
:101D90003343184363691843A3691843E36918433D
:101DA000236A18430843616A042903D1D4E90B1359
:101DB00019430843106020684069666A20F00701F3
:101DC00030460E43012704280CD1A06A0643E06A7E
:101DD00040B12046FFF752F820B14020606584F8FA
:101DE0003570BAE7206846612046FFF733F894F86B
:101DF0005C203F2191408160656584F8357000204A
:101E0000ACE700003F8010F070B5044600F044FAE3
:101E10000546601C02D004480078044400F03CFAF7
:101E2000401BA042FAD370BD340000202DE9F041E0
:101E300086B014216846FEF71FFA2B480168002976
:101E40004FD14FF00108C0F80080284800240168F5
:101E500041F0010101600068022500F001000590D9
:101E60004FF63F00CDE9000502AA03260C2782E8C1
:101E7000D00069461E4800F01BF902AA694682E8B4
:101E8000D000CDE900851B4800F012F948F233106C
:101E9000CDE9000502AA694682E8D000164800F0A4
:101EA00007F94FF68370CDE9000502AA694682E87A
:101EB000D000124800F0FCF84CF20370CDE90005A8
:101EC00002AA694682E8D0000D4800F0F1F86020CF
:101ED000CDE9000502AA694682E8D000094800F071
:101EE000E7F806B0BDE8F0812C0000203838024049
:101EF0000014024000080240001802400010024096
:101F0000000C0240000402402DE9F04F0022DFF8EF
:101F100054B101264FF00F0906FA02F401EA040356
:101F2000A3427DD122F003075F44D7F808C8950784
:101F30004FEA157809FA08FA0AEA0C05DFF828C111
:101F4000604502D14FF0000C40E0DFF820C1604551
:101F500002D14FF0010C39E0DFF814C1604502D125
:101F60004FF0020C32E0DFF80CC1604502D14FF0B7
:101F7000030C2BE0DFF800C1604502D14FF0040CE8
:101F800024E0DFF8F8C0604502D14FF0050C1DE0F9
:101F9000DFF8ECC0604502D14FF0060C16E0DFF828
:101FA000E4C0604502D14FF0070C0FE0DFF8D8C065
:101FB000604502D14FF0080C08E0DFF8D0C0604562
:101FC00002D14FF0090C01E04FF00A0C0CFA08FCAA
:101FD000AC4522D12E4DD5F800C02CEA030CC5F833
:101FE00000C005F1040CDCF800509D43CCF8005013
:101FF0000CF10405D5F800C02CEA030CC5F800C0AC
:102000002D1DD5F800C02CEA030CC5F800C0D7F888
:10201000085825EA0A05C7F808580568570000E07F
:102020001AE00323BB409D430560D50800EB8505FE
:10203000D5F820C057074FEAD76809FA08F72CEA05
:10204000070CC5F820C0C5689D43C5604568A54319
:10205000456084689C438460521C102AFFF45CAF86
:10206000BDE8F08F00300140000002400004024053
:1020700000080240000C0240001002400014024020
:1020800000180240001C02400020024000240240D0
:10209000003C014070470000044910B50A68024244
:1020A00002D00860FFF7F6FF10BD0000143C0140AD
:1020B0002DE9F84F00224FF0010803254FF00F0ED5
:1020C0000B6808FA02F42340A3426ED14E68012E39
:1020D00005D0022E03D0112E01D0122E12D1866807
:1020E0004FEA420C05FA0CF7BE43CF6807FA0CF72B
:1020F000374387604668A6430C79C4F300149440C4
:1021000034434460C668570005FA07FC8C6826EA29
:102110000C06BC403443C4604C68022C01D0122C25
:1021200013D1D40800EB8404A346D4F820905407BC
:102130004FEAD46A0EFA0AF629EA06090E6906FA87
:102140000AF646EA0906CBF8206004680E7924EA0C
:102150000C0406F00306BE40264306604C68E4000B
:102160006FD53B4C266846F480462660246822F0F2
:10217000030604F480440094364C3444A446D4F856
:1021800008489607360F0EFA06F7BC43324FB8429E
:1021900001D100272EE0314FB84201D1012729E0BB
:1021A0002F4FB84202D1022724E04AE02D4FB84217
:1021B00001D103271EE02C4FB84201D1042719E0BA
:1021C0002A4FB84201D1052714E0294FB84201D166
:1021D00006270FE0274FB84201D107270AE0264F14
:1021E000B84201D1082705E0244FB84201D10927A0
:1021F00000E00A27B7402743CCF80878204E34681F
:102200004F689C43FF0300D51C4334601C4E361DB1
:1022100034684F689C43BF0300D51C433460184E9C
:10222000083634684F689C43FF0200D51C43346075
:10223000134E0C3634684F689C43BF0200D51C43D4
:102240003460521C102AFFF43BAFBDE8F88F000049
:1022500044380240003001400000024000040240C7
:1022600000080240000C024000100240001402402E
:1022700000180240001C02400020024000240240DE
:10228000003C01400069084000D0012070470AB1BD
:10229000816170470904FBE70148806870470000CE
:1022A0003400002090F83D20202A01D00220704701
:1022B000242280F83D200268136823F00103136094
:1022C0000268536A23F0100353620268536A0B4397
:1022D000536201680A6842F001020A60202180F816
:1022E0003D100020704790F83D20202A01D00220A8
:1022F0007047242280F83D200268136823F0010310
:10230000136003685A6A22F00F020A4391B25962BD
:1023100001680A6842F001020A60202180F83D103D
:102320000020704770472DE9F041016804464A6972
:102330004E6890F83E000025D743FA0506D4F243D4
:10234000D20503D46FF4807201254A61B90508D41F
:10235000F143C90505D422686FF4007145F0020508
:102360005161790525D4F143C90522D4638D94F8D0
:102370003D10226B202808D13BB9212910D02929F2
:102380000ED0282901D1212A0AD022686FF4806159
:10239000516145F00405102806D0402804D008E01B
:1023A000204601F06FFB04E02068016841F40071F1
:1023B0000160380508D4F043C00505D421686FF4E6
:1023C000006045F008054861002D07D0206C2843C7
:1023D00020642046BDE8F04101F0AABABDE8F081D2
:1023E0007047000070B5040025D094F83D0000252A
:1023F00020B984F83C50204600F0BAF8242084F834
:102400003D002068016821F0010101602068016839
:1024100041F4004101602068016821F4004101603D
:1024200000F000FD4D4A6168914201D84C4900E03E
:102430004C49884201D2012070BD4B492368B0FB52
:10244000F1F15E6826F03F060E435E6063689342DA
:1024500006D94FF4967359434FF47A73B1FBF3F1F5
:102460002368491C1E6A26F03F06314319626168E1
:10247000914210D84900401EB0FBF1F2521CC2F349
:102480000B02042A01D2042022E0B0FBF1F0401C30
:10249000C0F30B001CE0A268F2B301EBC10303EB35
:1024A0000116431EB3FBF6F35B1C43F480431B058C
:1024B00049D092B301EBC10202EB0111401EB0FB07
:1024C000F1F0401CC0F30B0040F4804040F40040A9
:1024D0002168CA694CF6FF739A431043C861D4E976
:1024E000071001432068026822F0C0021143016016
:1024F000D4E9030101432068826848F2FF339A431C
:1025000011438160D4E9050108432168CA6822F0BB
:10251000FF021043C86001E00EE016E02068016889
:1025200041F0010101602564202084F83D0025630D
:1025300084F83E50002070BD01EB4106431EB3FB02
:10254000F6F35B1CB3E70120C2E701EB4101401E3B
:10255000B0FBF1F0401CC0F30B00B7E7A086010010
:1025600080841E0000093D0040420F0070470000BB
:10257000F0B587B0044614216846FDF77DFE1E497C
:102580002068884235D11D48016841F0040101608E
:10259000016801F004010591016841F00101016049
:1025A0000068122400F0010005904FF4007001252E
:1025B000032604278DE8F10069461148FFF778FDEE
:1025C00028028DE8F10069460E48FFF771FD0B48BF
:1025D0001030016841F4000101600068002200F43D
:1025E000000005901146492000F0EEF9492000F066
:1025F000DDF907B0F0BD0000005C0040303802405B
:102600000008024000000240704700000248816854
:102610000278114481607047340000200B4810B5E7
:10262000016841F400710160016841F4806101605A
:10263000016841F480710160032000F0E5F9002099
:1026400000F006F800F09AF9002010BD003C0240AE
:1026500070B50D4D04464FF47A712878B1FBF0F057
:102660000A490968B1FBF0F001F003F948B9102CF0
:1026700007D200222146501E00F0A6F900206C600F
:1026800070BD012070BD000034000020400000201B
:102690002DE9F041044690F8A00016460F460128A7
:1026A0001DD0012584F8A050022084F8A10006EB7B
:1026B000860000EBC60004EB800034223830FDF7C2
:1026C000C2FD32463946204601F0E2FA20684562F2
:1026D00084F8A150002084F8A000BDE8F081022019
:1026E000FBE7000090F8A01001290ED0012100F8AE
:1026F000A01F02224270064A136843F4803313601D
:1027000041700021017008467047022070470000A8
:102710001868014070B5040004D094F8A1000025A9
:1027200010B106E0012070BD84F8A050204600F0F2
:102730006BF8022084F8A1002068816921F07041C3
:102740008161D4E901010843D4E90312114308432C
:1027500021688A691043886121688A682948024093
:102760008A60A18A0A0421688B68A66933431343EF
:102770008B602168CA680240CA60A18B0B04216883
:10278000CA68266A32431A43CA6021680A6902404D
:102790000A61A18C22680B041169A66A31431943AE
:1027A000116121684A6902404A61A08D01042068D4
:1027B0004269236B1A430A43426194F83500216849
:1027C000020294F83600CB6A03F07F43CB622168A3
:1027D000CB6A94F8346042EA004033430343CB624F
:1027E0002068416B41F0060141632068816941F036
:1027F00001018161C4F8A450012084F8A1000020E7
:1028000070BD000000F800F02DE9F04186B00446EC
:1028100014216846FDF730FD5049206888427CD17C
:102820004F480024016841F080610160006800F0B9
:10283000806005904A481438016841F02001016029
:10284000016801F020010591016841F0010101607A
:10285000016801F001010591016841F00201016088
:10286000016801F002010591016841F04001016039
:10287000016801F040010591016841F00401016027
:10288000016801F004010591016841F0080101604F
:102890000068022500F0080005904FF48060009069
:1028A000CDE901540E26CDE9034669462D48FFF7D0
:1028B000FFFB41F658000090CDE90154CDE90346F5
:1028C00069462948FFF7F4FB03200090CDE9015445
:1028D0000927DFF89880CDE9034769464046FFF7AE
:1028E000E7FB4FF470600090CDE90154CDE9034659
:1028F00069464046FFF7DCFB4FF40C600090CDE9E1
:102900000154DFF86C80CDE9034669464046FFF785
:10291000CFFB4FF49860009000E01CE0CDE901543B
:10292000CDE9034669461348FFF7C2FB48200090F3
:10293000CDE90154CDE9034669460F48FFF7B8FBDE
:102940004FF4A0500090CDE90154CDE9034769460A
:102950004046FFF7ADFB06B0BDE8F08100680140DE
:1029600044380240001402400000024000040240CB
:102970000018024000080240000C02400A4808B556
:10298000016841F480410160006800F480400090DB
:102990000548001F016841F080510160006800F0A7
:1029A0008050009008BD000044380240002809DB38
:1029B00000F01F02012191404009800000F1E02059
:1029C000C0F8001170470000F0B40E4B1B680C46B5
:1029D000C3F30223C3F10705042D00D90425191DF3
:1029E000072901D2002300E0DB1E012606FA05F1CB
:1029F000491E214099409E40761E16403143F0BC4E
:102A000001F020BD0CED00E0064900F00702086867
:102A10004FF6FF03184040EA0220034A10430860C3
:102A2000704700000CED00E00000FA052DE9F843C6
:102A30001748016841F0805101600068154F00F0AF
:102A40008050012600903E64FFF726FC05464FF4B7
:102A50007A78114C05E000BFFFF71EFC401B404593
:102A60000DD86068C003F7D57E64FFF715FC0546F6
:102A7000464607E0FFF710FC401BB04202D9032096
:102A8000BDE8F88360688003F4D50020F8E7000013
:102A90004038024000000E42007000402DE9F84F1F
:102AA00004460068DFF824A2894F8A4DC1074FF021
:102AB00001084FF0000603D1810701D4400648D534
:102AC000CAF86860FFF7E8FB814605E0FFF7E4FB22
:102AD000A0EB090002287DD828680001F6D42078F0
:102AE000C1077D4805D06168227A890141EA0271F7
:102AF00001602178890711D501686268237B920102
:102B0000C1F3027142EA036242EA0171016039686D
:102B1000E26921F01F01521E1143396021784906F4
:102B200008D56168227B890141EA0261227A41EA83
:102B300002710160CAF86880FFF7AEFB814605E0CC
:102B4000FFF7AAFBA0EB0900022843D82868000180
:102B5000F6D52068410701D400074ED5CAF8706049
:102B6000FFF79AFB814605E0FFF796FBA0EB090013
:102B700002282FD82868C0438000F5D52078410767
:102B8000564814D501682269237D9201C1F3027170
:102B900042EA036242EA017101603968226A6FF019
:102BA000FF0321F4F85103EB02221143396021782D
:102BB000090712D501682269C1F30361920142EA53
:102BC0000161227E41EA027101603868616A20F485
:102BD000403000E051E008433860CAF87080FFF7E9
:102BE0005BFB074605E000BFFFF756FBC01B022852
:102BF00043D82868C0438000F6D42078800653D597
:102C000034484030016841F0805101600068344D23
:102C100000F080500090286840F480702860FFF732
:102C20003BFB074605E000BFFFF736FBC01B022851
:102C300023D82868C005F7D5274D143D286810F41F
:102C4000407020D0218D01F4407181421BD0286852
:102C500020F440712348C0F800800660296028688D
:102C6000C00710D0FFF718FB064641F2883707E08F
:102C7000FFF712FB801BB84202D90320BDE8F88F92
:102C800028688007F4D5A16A1248C1F301220830F0
:102C9000032A13D0016821F4F81101602868218DFE
:102CA000C1F30B01084328602078C00604D50E4903
:102CB00094F82C00C1F8E0010020DFE702680B4B1C
:102CC00022F4F81219400A430260E7E70000474285
:102CD0008C38024000380240843802408838024074
:102CE00000700040400E474200104742FFFCFF0FBB
:102CF0002DE9F0470E46050065D0DFF81481D8F8BD
:102D00000000F7B200F00F00B04207D288F8007060
:102D1000D8F8000000F00F00B04254D128683D4CB4
:102D2000810712D5400703D5206840F4E0502060A9
:102D30002878000703D5206840F4604020602068B0
:102D4000A96820F0F000084320602878C0072DD043
:102D5000304968680839012812D0022813D00328A6
:102D600011D00968890700292DDA216821F00301B3
:102D700001432160FFF790FA814641F2883A0EE064
:102D800009688903EFE709688901ECE7FFF784FA2E
:102D9000A0EB0901514502D90320BDE8F087206866
:102DA000696800F00C00B0EB810FEFD1D8F800108B
:102DB000404601F00F01B14207D90770006800F0EA
:102DC0000F00B04201D00120E7E72878400705D581
:102DD0002068E96820F4E050084320602878000764
:102DE00006D52068296920F4604040EAC1002060CF
:102DF00000F028F82168084AC1F30311515CC8406B
:102E00000649086006480068FFF722FC0020C4E776
:102E1000003C0240083802404C4D000840000020B1
:102E2000380000200448054900680968044AC1F3D5
:102E30008221515CC84070474000002008380240A1
:102E40005C4D0008154810B5006810F00C021448DD
:102E500013D04110042A0FD0082A0ED10F4C241F82
:102E60002268236802F03F025B0207D52068C0F3A6
:102E70008810A0FB010106E0084610BD2168C1F3DF
:102E80008811A1FB00010023FDF7ACF92168C1F313
:102E90000141491C4900B0FBF1F010BD0838024067
:102EA0000024F4002DE9F84F04006ED02078DFF8FC
:102EB0003C93C007A9F104054AD009F10400016858
:102EC000C1F38101012908D00068C0F38100022804
:102ED0000AD1D9F80000400206D52868800337D50A
:102EE00060680028E1D033E06068B0F5803F10D022
:102EF000B0F5A02F286810D020F480302860286812
:102F000020F4802028606068A8B1FFF7C5F9064664
:102F10000DE0286840F48030F4E740F48020286019
:102F2000F7E700BFFFF7B8F9801B642873D828685B
:102F30008003F7D50CE0FFF7AFF9064605E000BFC8
:102F4000FFF7AAF9801B6428F0D828688003F7D41B
:102F50002078DFF89C8280074FF0000A3ED5A34816
:102F6000001D016811F00C0F08D00068C0F381004B
:102F700002280BD1D9F80000400207D42868800746
:102F800016D5E068012800D112E02BE1E068B8B165
:102F90000120C8F80000FFF77FF9064605E000BFF2
:102FA000FFF77AF9801B0228C0D828688007F7D578
:102FB0002868216920F0F80040EAC10028600DE08F
:102FC000C8F800A0FFF768F9064604E0FFF764F9C7
:102FD000801B02281FD828688007F7D420780007B4
:102FE00022D5824E83486169703671B1012101603A
:102FF000FFF752F9074604E0FFF74EF9C01B02281D
:1030000009D830688007F7D50EE0C0F800A0FFF7B8
:1030100043F9074605E082E0FFF73EF9C01B0228AE
:103020007DD830688007F7D42078400768D5DFF86E
:10303000BCB100270BF13C0BDBF80000C0000BD447
:10304000DBF8001041F08051CBF80010DBF80000F5
:10305000012700F080500090674E3068C00510D402
:10306000306840F480703060FFF716F9009005E09A
:10307000FFF712F90099401A022850D83068C005AD
:10308000F6D55A4EA0686C3601280FD00528306856
:1030900010D020F001003060306820F00400306073
:1030A000A068B8B1FFF7F8F800900FE0306840F082
:1030B0000100F4E740F004003060F7E7FFF7ECF8B8
:1030C0000099411A41F28830814266D83068800701
:1030D000F4D50EE0FFF7E0F8009007E0FFF7DCF82A
:1030E0000099411A41F28830814256D830688007F1
:1030F000F4D42FB1DBF8001021F08051CBF8001090
:10310000A069C8B33949091D0968C1F381010229C1
:103110004AD00228504607D0C8F8600000E03CE0E2
:10312000FFF7BAF804463BE04746C8F86000FFF7EF
:10313000B3F8064605E000BFFFF7AEF8801B022893
:103140002BD828688001F7D4D4E907010843A16A85
:103150002A4A490802EB0141626A41EA82110843A6
:1031600094F82C1040EA0161C9F80010012038667B
:10317000FFF792F8044606E036E000BFFFF78CF850
:10318000001B022809D828688001F7D52CE000BF71
:10319000FFF782F8001B022802D90320BDE8F88F50
:1031A00028688001F4D41FE00128F7D0D9F8000086
:1031B000E26900F48001914214D1226A00F03F01DB
:1031C00091420FD147F6C071626A0140914209D124
:1031D000A26A00F44031914204D1E16A00F07060CB
:1031E000884201D00120D9E70020D7E70438024007
:1031F00000004742800E4742007000400000FFFF81
:1032000070B50D46040003D094F82C0010B107E00F
:10321000012070BD002084F82D00204600F011F838
:10322000022084F82C00211D2068FDF7CFFED4E990
:1032300000022946FDF71CFF012084F82C00002025
:1032400070BDFEF7F3BD10B5044690F82C000228BF
:1032500009D0022084F82C002068FDF7DFFE012051
:1032600084F82C00002010BD70B5044690F82C00A6
:103270000D4602280DD0022084F82C002068FDF7AE
:10328000D3FE2868022805D05FF0010084F82C00E6
:10329000002070BD0520F9E710B5040011D0022010
:1032A00084F851002068016821F040010160204647
:1032B00000F04CF80020606584F8510084F850005C
:1032C00010BD012010BD90F85100704770B504008A
:1032D00005D00025A56294F8510010B106E0012048
:1032E00070BD84F85050204600F046F8022084F863
:1032F00051002068016821F040010160D4E901011A
:103300000843D4E903121143084361690843218B40
:1033100001F400710843E1690843216A0843A16A86
:10332000084321680860A069042101EA1040616A2D
:103330000843216848602068C16921F40061C161C7
:103340006565012084F85100002070BD00680749C0
:10335000884209D10648016821F4801101604FF4C8
:1033600060710448FEF7D0BD704700000050014076
:10337000443802400014024010B586B004461421BF
:103380006846FCF779FF14492068884221D1134828
:103390000021026842F480120260006800F480108C
:1033A00005900E481438026842F02002026000685E
:1033B00000F0200005904FF4607000900220CDE9ED
:1033C0000101032003900520049069460448FEF79C
:1033D0006FFE06B010BD00000050014044380240AE
:1033E000001402402DE9F84F044640680025984635
:1033F00016460F464FF0040BB0F5827F01D1A0684E
:1034000088B194F85000012818D0012084F85000A9
:10341000FEF742FF814694F851004FF0000A012860
:103420000ED002257DE084F851B013460A462046AE
:10343000CDF8008000F02CF9BDE8F88F0220FBE702
:10344000002F6DD0002E6BD084F851B0C4F854A07A
:10345000A763A687E687C4F830A0A4F834A0A4F830
:1034600036A0C4F840A0C4F844A0A068B0F5004F4E
:1034700004D12068016821F480410160206801685E
:10348000490603D4016841F040010160E068D8B109
:1034900039E020688168C90709D0007BA16B0870FA
:1034A000A06B401CA063E08F401EE0870CE0FEF79D
:1034B000F3FEA0EB0901414503D3B8F1FF3F03D070
:1034C00036E0B8F1000F33D0E08F0028E1D11DE0E5
:1034D00020688168C90709D0C068A16B0880A06B0B
:1034E000801CA063E08F401EE0870CE0FEF7D4FE56
:1034F000A0EB0901414503D3B8F1FF3F03D017E02A
:10350000B8F1000F14D0E08F0028E1D14A464146BF
:10351000204600F00EFE08B120206065606D00B10D
:103520000125012084F8510084F850A0284683E743
:103530000325F6E72DE9F84F044690F850000027E0
:103540001D461646894601280DD04FF0010B84F820
:1035500050B0FEF7A1FE804694F85100BA4601280B
:1035600004D002278EE00220BDE8F88FB9F1000FE9
:103570007DD0002E7BD0032084F85100C4F854A0E5
:10358000C4F83090A686E686C4F838A0A4F83CA01B
:10359000A4F83EA0C4F844A0C4F840A0A068B0F5C8
:1035A000004F04D12068016841F480410160206827
:1035B0000168490603D4016841F040010160E068F8
:1035C000B0F5006F606803D030B3012E24D040E026
:1035D00008B1012E1CD1206B21680088C86006E06C
:1035E00020688168890709D5216B0988C160206B33
:1035F000801C2063E08E401EE08609E0FEF74CFE52
:10360000A0EB0800A84202D3681C01D031E07DB3D2
:10361000E08E0028E4D11FE0206B21680078087359
:1036200006E020688168890709D5216B0978017354
:10363000206B401C2063E08E401EE08609E0FEF710
:103640002BFEA0EB0800A84202D3681C01D010E0BA
:1036500075B1E08E0028E4D142462946204600F0AC
:1036600097FD08B120206065A06820B107E008E060
:10367000FFE7032706E02068C16880680090606D5E
:1036800000B1012784F851B084F850A038466BE7A8
:103690002DE9F84F044690F8500000270A9E1D4679
:1036A00092468B464FF0010901280ED0012084F884
:1036B0005000FEF7F1FD804694F851006168012842
:1036C0000CD0B1F5827F07D102E00220BDE8F88F6F
:1036D000A16809B9042801D00227C2E0BBF1000F9C
:1036E00027D0BAF1000F24D01DB394F8510004285C
:1036F00002D0052084F8510000206065C4F838A08D
:10370000E587A587C4F830B0E586A58620646064A7
:1037100020680168490603D4016841F04001016056
:10372000E068B0F5006F606805D0E8B3012D46D0C1
:103730007FE0012795E008B1012D39D1206B216888
:103740000088C860206B801C2063E08E401EE086ED
:103750002EE02068816889070FD5E18E69B1B9F143
:10376000010F0AD1216B0988C160206B801C206386
:10377000E08E401EE0864FF0000920688168C9078E
:103780000CD0E18F51B1C068A16B0880A06B801C88
:10379000A063E08F401EE0874FF00109FEF77CFD3B
:1037A000A0EB0800B04200E009E001D3701C50D14A
:1037B000E08E0028CDD1E08F0028CAD13FE0206BF9
:1037C000216800780873206B401C2063E08E401E47
:1037D000E0862EE02068816889070FD5E18E69B107
:1037E000B9F1010F0AD1216B09780173206B401CDC
:1037F0002063E08E401EE0864FF00009206881685B
:10380000C9070CD0E18F51B1C068A16B0870A06BE3
:10381000401CA063E08F401EE0874FF00109FEF7D7
:103820003BFDA0EB0800B04202D3701C01D010E0B9
:103830007EB1E08E0028CDD1E08F0028CAD142466B
:103840003146204600F0A4FC28B101272020606505
:1038500007E0032705E0A06818B92068C168806800
:103860000090012084F85100002084F85000384670
:103870002CE710B5401EB0F1807F01D3012010BDB0
:103880004FF0E02460610F21601700F0DBFD0020A5
:10389000A06107202061002010BDFEE70148FEF76F
:1038A00042BD0000A801002010B5806B90F83D20BB
:1038B000436B002103B1D963836B03B1D963036800
:1038C0001C6824F480641C604185436B03B1196556
:1038D000836B03B1196503681C6824F001041C6044
:1038E00090F83D402023602C0BD0282434EA0202BB
:1038F0000FD080F83D3080F83E1000BFFEF770FD1D
:1039000010BD80F83D3080F83E100164FEF70AFDDE
:1039100010BD0268136843F0010313600268136866
:1039200043F480631360016380F83D40E6E70000E4
:1039300070B5044690F83D0094F83E10102906D169
:10394000222804D121680A6822F400620A60282132
:1039500031EA00024FF000054FF0200626D0216822
:103960004968090503D4602801D084F83D602563C7
:1039700084F83E5020684168090537D5416821F434
:1039800000614160606B90F835203C49012A11D0FC
:103990000165606BFEF78AF938B32068016821F091
:1039A0000101016084F83D60606B1CE0256384F8D0
:1039B0003D10DFE7A06B0165A06BFEF777F9A0B1C2
:1039C00020684169C943490605D40069616A0870E5
:1039D000606A401C60622068016821F0010101609A
:1039E00084F83D60A06B016D884710E094F83D10AD
:1039F000602910D04169C943490605D40069616A4C
:103A00000870606A401C60622046FEF7E9FC206C8A
:103A1000C1071CD115E084F83D6025644169C943A4
:103A2000490605D40069616A0870606A401C6062DA
:103A30002068016821F0010101602046FEF772FC58
:103A4000E5E7810703D4410701D4000704D52068C6
:103A5000416821F4E061416094F83D00216C490720
:103A60000BD5282809D10648E062256384F83D601B
:103A700084F83E502046FEF779FD70BDA938000855
:103A80000000FFFF2DE9F04190F83D40C26A00239D
:103A900020261C4F01686FF48065082A01D0202A77
:103AA00001D1282C04D0212C16D04D61BDE8F08125
:103AB000C7624A6822F4E0624A6001684D610168A9
:103AC0000A6822F480620A60036380F83D6080F82F
:103AD0003E30FEF74BFDE9E7C7622122026380F822
:103AE0003D6080F83E304A6822F4E0624A60016836
:103AF0004D6101680A6822F480620A60FEF784FD65
:103B0000D4E700000000FFFFFEF77EB92DE9F04189
:103B1000244886B00178002940D1234C0125057046
:103B20002068002640F0080020602068022700F08E
:103B30000800059068038DE8E100DFF870806946B1
:103B40004046FEF7B5FA206840F008002060206883
:103B5000694600F008000590A0148DE8E100404699
:103B6000FEF7A6FA206840F0040020602068104CA0
:103B700000F00400059004208DE8E100694620462D
:103B8000FEF796FA002204212046FEF780FB012270
:103B900004212046FEF77BFB00F07AFB06B0BDE86F
:103BA000F08100004400002030380240000C024048
:103BB000000802402DE9F843154D0C460746002247
:103BC00004212846FEF763FBDFF848804FF40056D7
:103BD000002231464046FEF75AFB384600F0A6FB6D
:103BE0000D4822466946C3680C48FFF7FBFB08B145
:103BF00000F044FB012231464046009CFEF747FBA3
:103C0000012204212846FEF742FB2046BDE8F88346
:103C100000080240000C0240440000208403002001
:103C200070B50546012251030948FEF730FB094CE7
:103C3000002204212046FEF72AFB284600F076FBEE
:103C40002046BDE8704001220421FEF720BB0000A1
:103C5000000C02400008024070B5054600224FF4F7
:103C600000510948FEF713FB084C002204212046AE
:103C7000FEF70DFB284600F059FB2046BDE87040DA
:103C800001220421FEF703BB000C024000080240A1
:103C9000F0B503688C88DD68C5F30B452C4425041A
:103CA000882404EBC2141E5906F470461E510368A2
:103CB0000F68DE68C6F30B46761C3E442E431E5149
:103CC00004688B89E568C5F30A052B441D048C2321
:103CD00003EBC213E65806F47046E65004688F689A
:103CE000E668C6F30A06761C3E442E43E65094234B
:103CF000046803EBC213E55825F00705E550056895
:103D00000C69EC5091F831300C7E1F0226069C2481
:103D1000056804EBC21491F8323055F804C04FF036
:103D2000000C45F804C091F8305046EA03433D4387
:103D30001D4303681D519823046803EBC213E55823
:103D400025F0FF05E55005684C69EC50A023046898
:103D500003EBC213E55840F20776B543E550D1E9CD
:103D600007452C430568EC50AC23046803EBC213F1
:103D7000E55844F803C005684C6AEC500B698BB3F6
:103D8000012B32D0042B32D0022B30D0032B2ED07B
:103D9000072B2CD00123B024056804EBC2142E5944
:103DA00006F0E0262E51D1E90065AD1B0E8D5D4376
:103DB0005E43ED1C45EA064305682B51B4230468B5
:103DC00003EBC213E5586FF30A05E5500468C96AAE
:103DD000E1500068842101EBC211425842F0010217
:103DE0004250F0BDFFE70423D5E70323D3E70223C6
:103DF000D1E700007FB5002412480094019402949A
:103E00000F49039401604FF48031C0E9011401258A
:103E10000461057680F820400B49C0E90A14C561A9
:103E2000C46080F830404461FDF7E9FA0748CDE905
:103E30000005694602940348FDF78CF97FBD000038
:103E400000200140B00000200100000F120000100F
:103E50007FB5002411480094019402940E49039404
:103E600001604FF48031C0E9011401250461057639
:103E700080F820400A49C0E90A14C561C46080F88E
:103E800030404561FDF7BBFA0095CDE90154694624
:103E90000248FDF75FF97FBD00210140F8000020D6
:103EA0000100000F0B480A494FF400320160102155
:103EB000416000218160C0E9031252014261017634
:103EC00041768176C17601774177FDF7DABC000053
:103ED000006800404001002000B587B01C21684602
:103EE000FCF7CAF910480F49002201600121C0E91E
:103EF00001120421C16010214023C0E90413802372
:103F0000C0E906320262426282620091019102912E
:103F100003910491059106916946FFF771F907B085
:103F200000BD0000400100A0FC02002000B587B0E9
:103F300014216846FCF7A0F92A480021026842F0E3
:103F400020020260026802F020020592026842F03C
:103F500080020260026802F080020592026842F06C
:103F600004020260026802F004020592026842F054
:103F700001020260026802F001020592026842F04A
:103F800002020260026802F002020592026842F038
:103F900040020260026802F040020592026842F0AC
:103FA00010020260026802F010020592026842F0FC
:103FB00008020260006800F00800059001200090EF
:103FC0000948CDE9010169460848FEF771F8002269
:103FD00011460620FEF7F8FC0620FEF7E7FC07B0C6
:103FE00000BD000030380240000011100000024007
:103FF0000E4810B50C4901600D49416000214FF495
:1040000080428160C0E9031241618161C161016246
:10401000FEF7E8F900210548FEF744F9BDE8104035
:1040200000210248FEF75FB9005C0040A8010020B3
:10403000A086010070B59AB034216846FCF71CF9DF
:1040400034210DA8FCF718F92A4829490024C0E9B1
:10405000001484600321C460C0E9044107210525E0
:10406000C0E906150E210162F52141624FF4A771E6
:104070008162F721C1624FF4AA71016380F8344074
:1040800080F8354080F83640FEF744FB01940294F6
:104090004FF48066CDE90646039404940094CDE97C
:1040A00008548DF8304005948DF831400A940B94F3
:1040B0008DF83240002269460E48FEF7E9FA0D9469
:1040C0000E940F94109411941294CDE91346CDE9F7
:1040D00015548DF864408DF86540179418948DF848
:1040E000664001220DA90348FEF7D2FA1AB070BD4E
:1040F00000680140FC0100200B480A494FF400729F
:1041000001604FF48271416000218160C1600161F2
:10411000C0E90512C1610162416281620A21C16286
:10412000FFF7D4B800500140A4020020FEE770471A
:104130007047F8B5044640684FF48273984221D125
:10414000A0684FF48065B0F5004F01D0A8420AD1B5
:104150002068066826F0400606606068984211D123
:10416000A068A8420ED000920B4600228021204673
:1041700000F03AF8002804D0606D40F0200060653F
:104180000320F8BD00920B4600220121EFE700005A
:1041900038B504461248134B0068B0FBF3F04FF4F7
:1041A0007A73584300906068B0F5827F0DD10B465A
:1041B000009200228021204600F016F870B1606D58
:1041C00040F020006065032038BD009830B1401EEB
:1041D000009020688068C0430006F6D5002038BDF6
:1041E0004000002000366E012DE9F0411D461746C3
:1041F0000E460446DDF8188008E0681C06D0FEF77D
:104200004BF8A0EB0800A8420BD255B1206880689B
:1042100036EA000030D00020B842EED10020BDE8E0
:10422000F0812068416821F0E00141606068B0F5EC
:10423000827F0BD1A068B0F5004F02D0B0F5806F3F
:1042400004D12068016821F040010160A06AB0F546
:10425000005F09D12068016821F4005101602068E5
:10426000016841F400510160012084F851000020F0
:1042700084F850000320D2E70120CDE710B50348B1
:10428000FFF70AF8BDE8104000F002B884030020F0
:1042900000B587B02148FFF716F800283BD11F482A
:1042A0001F4901601821C16100218160416107221D
:1042B0000161C0E90A12C1604FF4007201628261BB
:1042C00041624FF4827141601648016841F48011E7
:1042D0000160006800F480100590124814380168ED
:1042E00041F0200101600068694600F0200005905F
:1042F0004FF4607000900220019002900120039022
:10430000052004900848FDF7D3FE07B003485DF888
:1043100004EBFEF7DBBF07B000BD00008403002004
:1043200000500140443802400014024001B50648E4
:1043300001226946C3680548FFF7FCF8002801D050
:10434000FFF79CFF08BD000044000020840300200C
:104350007047FEF75BB9000070B59EB0302168462B
:10436000FBF78AFF142118A8FBF786FF30210CA861
:10437000FBF782FF1F480025016841F08051016072
:10438000006800F080501D901B48016841F44041D6
:1043900001600068022400F440401D90012000905C
:1043A000000401908001CDE90640082608964FF4EC
:1043B000B470CDE9090404200B906846FEF772FD45
:1043C000FEF734FB18A90F2081E831004FF4A0500C
:1043D0001B90E0021C90052118A8FEF789FC4FF401
:1043E000D870159510900C9612940CA8FEF756FBF9
:1043F0001EB070BD403802400070004005480168A2
:1044000041F47001016003494FF000608039086099
:104410007047000088ED00E0FEE700000FB4084B95
:1044200010B504A902AA039800F02CF8044602A9CA
:10443000002000F0C8F9204610BC5DF814FB000015
:10444000C74700080907090E002804DB00F1E02037
:1044500080F80014704700F00F0000F1E02080F8B1
:10446000141D704702E008C8121F08C1002AFAD1C3
:1044700070477047002001E001C1121F002AFBD1E4
:10448000704700002DE9FF4F8BB088460546002697
:1044900006E025280BD0DDE90D1290476D1C761C37
:1044A00028780028F5D10FB03046BDE8F08F002401
:1044B000A146A2460122AE4900E0044315F8013F9F
:1044C000203B02FA03F00842F7D128782A2810D0BE
:1044D0006FF02F022878A0F13001092915D809EBD7
:1044E000890102EB410144F0020400EB01096D1C5B
:1044F000F0E758F8041B5FEA010903D544F40054BF
:10450000C9F1000944F002046D1C28782E2817D147
:1045100015F8010F44F004042A280ED06FF02F0282
:104520002878A0F1300109290AD80AEB8A0102EBA8
:10453000410100EB010A6D1CF2E758F804AB6D1C59
:1045400028786C280FD006DC4C2817D068280DD0AE
:104550006A2814D104E0742810D07A280FD10DE015
:1045600044F400140AE044F4801401E044F44014DC
:104570006978814202D104F580146D1C6D1C287885
:10458000692865D006DC00288DD0632827D06428F0
:1045900006D15DE06E2808D073282AD0752877D020
:1045A000DDE90D129047761CE0E0C4F302500228CA
:1045B00009D003280DD0D8F8001004280DD00E60C3
:1045C00008F10408D2E0D8F80010F217C1E900623F
:1045D000F6E7D8F800100E80F2E70E70F0E718F852
:1045E000041B8DF8001000208DF80100EB4601201F
:1045F00003E058F804BB4FF0FF3061074FF00007AD
:1046000001D40AE07F1C57450DDA8742FADB1BF81C
:1046100007100029F6D106E07F1C8742FCDB1BF85F
:1046200007100029F8D1DDE90D23A9EB0700814629
:10463000214600F0B1F83044C61904E0DDE90D125E
:104640001BF8010B90477F1EF8D22146484688E0B0
:1046500058F8040BC4F302514FF00A0B032900D1A0
:1046600000B2042900D140B2002802DA40422D21D4
:1046700002E0210505D52B218DF82410012104E04D
:1046800006E0E10710D02021F6E708AF089113E01B
:1046900058F8040BC4F302514FF00A0B032900D160
:1046A00080B2042900D1C0B20021EEE75946FBF7E1
:1046B000EEFD303107F8011D0028F7D1ADEB070002
:1046C00000F1200B600702D524F4803401E04FF0A4
:1046D000010ADA4502DDAAEB0B0000E00020824669
:1046E00000EB0B0108980144A9EB01000A90E003DC
:1046F00006D4DDE90D2321460A9800F04DF8064462
:104700004FF0000908E009A911F80900DDE90D12D0
:10471000904709F10109761C08998945F3DBE0030C
:104720000CD5DDE90D2321460A9800F035F8064442
:1047300004E0DDE90D1230209047761CBAF100014B
:10474000AAF1010AF5DC05E0DDE90D1217F8010B0D
:104750009047761CBBF10001ABF1010BF4DC0A9829
:104760002146DDE90D2300F005F806446D1C97E6AF
:10477000092801002DE9F041044600251E46174690
:10478000880404D405E039462020B0476D1C641E1F
:10479000F9D52846BDE8F0812DE9F0410446002511
:1047A0001E469046C80301D5302700E02027880424
:1047B00004D505E041463846B0476D1C641EF9D566
:1047C0002846BDE8F0810A68531C0B6010707047E2
:1047D0002820FFF741BA2920FFF73EBA4FF4A07016
:1047E0007047F020704710B5FFF790F9CA20FFF727
:1047F00033FAC320FFF714FA0820FFF711FA50200C
:10480000FFF70EFACF20FFF727FA0020FFF708FA8C
:10481000C120FFF705FA3020FFF702FAED20FFF77D
:104820001BFA6420FFF7FCF90320FFF7F9F91220C7
:10483000FFF7F6F98120FFF7F3F9E820FFF70CFA0C
:104840008520FFF7EDF90020FFF7EAF97820FFF760
:10485000E7F9CB20FFF700FA3920FFF7E1F92C2028
:10486000FFF7DEF90020FFF7DBF93420FFF7D8F976
:104870000220FFF7D5F9F720FFF7EEF92020FFF728
:10488000CFF9EA20FFF7E8F90020FFF7C9F9002087
:10489000FFF7C6F9B120FFF7DFF90020FFF7C0F9F5
:1048A0001B20FFF7BDF9B620FFF7D6F90A20FFF766
:1048B000B7F9A220FFF7B4F9C020FFF7CDF9102017
:1048C000FFF7AEF9C120FFF7C7F91020FFF7A8F9ED
:1048D000C520FFF7C1F94520FFF7A2F91520FFF722
:1048E0009FF9C720FFF7B8F99020FFF799F9362014
:1048F000FFF7B2F9C820FFF793F9F220FFF7ACF900
:104900000020FFF78DF9B020FFF7A6F9C220FFF7CE
:1049100087F9B620FFF7A0F90A20FFF781F9A72051
:10492000FFF77EF92720FFF77BF90420FFF778F9DE
:104930002A20FFF791F90020FFF772F90020FFF716
:104940006FF90020FFF76CF9EF20FFF769F92B20D2
:10495000FFF782F90020FFF763F90020FFF760F905
:104960000120FFF75DF93F20FFF75AF9F620FFF726
:1049700073F90120FFF754F90020FFF751F90620E1
:10498000FFF74EF92C20FFF767F9C820FFF7BCF8B6
:104990002620FFF761F90120FFF742F9E020FFF739
:1049A0005BF90F20FFF73CF92920FFF739F92420A4
:1049B000FFF736F90C20FFF733F90E20FFF730F937
:1049C0000920FFF72DF94E20FFF72AF97820FFF78D
:1049D00027F93C20FFF724F90920FFF721F91320DC
:1049E000FFF71EF90520FFF71BF91720FFF718F94D
:1049F0001120FFF715F90020FFF712F9E120FFF76A
:104A00002BF90020FFF70CF91620FFF709F91B20FE
:104A1000FFF706F90420FFF703F91120FFF700F96B
:104A20000720FFF7FDF83120FFF7FAF83320FFF7F2
:104A3000F7F84220FFF7F4F80520FFF7F1F80C2013
:104A4000FFF7EEF80A20FFF7EBF82820FFF7E8F869
:104A50002F20FFF7E5F80F20FFF7E2F81120FFF70E
:104A6000FBF8C820FFF750F82920FFF7F5F8BDE85C
:104A700010402C20FFF7F0B810B5FFF747F80321DE
:104A8000D320FFF797F880B210BD0000FDF7C6FDF8
:104A9000FFF762FCFFF74AFAA348A249022201602D
:104AA0000021C0E90112C160C0E90A12016341633B
:104AB000FDF718F801219C48FCF7C2FFFFF70CFA3C
:104AC000FFF796FAFFF7B6FAFFF716FBFFF792F932
:104AD000FFF7BEF9FFF7E6F99348B838FCF75CFD3D
:104AE00091487038FCF758FDFBF7E0FE4FF050445A
:104AF00021460020FBF724FF21460120FBF720FF81
:104B00000120FBF7F3FFFBF7E3FC884D2846FBF79A
:104B1000A7FC2846FBF7F0FF8548FBF7FBFF824820
:104B2000B838FCF7CBFB834C024683A1606004F1EC
:104B30000C00FFF773FC7C487038FCF7BFFB60602B
:104B40007DA104F11C00A268FFF768FC6FF47F08E8
:104B50006FF0FF0B4FF4917A4FF461764FEA2529FD
:104B60004FF47A77704864217038FCF7C3FC6E48C4
:104B70006421B838FCF7BEFC6B487038FCF79EFB2C
:104B800060606948B838FCF799FB02466060694884
:104B90006AA10C30FFF742FC664868A11C30A2688D
:104BA000FFF73CFC4046FBF7C3FF2846FBF7A4FF9A
:104BB000604A01230C3228214620FBF793FC5D4A12
:104BC00001230C322821B420FBF78CFC594A012325
:104BD0000C3278214620FBF785FC564A01230C3223
:104BE0007821B420FBF77EFC524A01230C32B42119
:104BF0004620FBF777FC4F4AB42101230C320846CC
:104C0000FBF770FCFBF746FE5846FBF791FF1423B9
:104C1000822255211E20FBF793FD14238222CD21F1
:104C20001E20FBF78DFD1423822291211E20FBF70D
:104C300087FD6423462219464120FBF781FD64234A
:104C4000462278214120FBF77BFD0F225F2128209F
:104C5000FBF7BEFD0F225F219B20FBF7B9FD0F2262
:104C60009B212820FBF7B4FD9B210F220846FBF770
:104C7000AFFD0F22D7212820FBF7AAFD0F22D72155
:104C80009B20FBF7A5FD208801280FD14846FBF7A4
:104C90004FFF12225146DC20FBF79AFD122214210D
:104CA000DC20FBF795FD3846FDF7AEF8208878B993
:104CB0002846FBF73DFF12225146DC20FBF788FD1A
:104CC00012221421DC20FBF783FD3846FDF79CF807
:104CD0006068B042BFF446AF4846FBF729FF0F2299
:104CE0005F212820FBF774FD0F225F219B20FBF73B
:104CF0006FFD0F229B212820FBF76AFD9B210F22CD
:104D00000846FBF765FD0F22D7212820FBF760FD41
:104D10000F22D7219B20FBF75BFD3846FDF774F887
:104D200020E7000000B0024068010020FF0000FF03
:104D30006C00002000000020253464002575202030
:104D400020000000000610160006101600000000EB
:104D5000000000000102030406070809000000002B
:104D60000102030400000000000000000000000039
:104D70000000000000000000000000000000000033
:104D80000000000000000000000000000000000023
:104D90000000000000000000000000000000000013
:104DA0000000000000000000000000000000000003
:104DB0000000038000038000038000038000038064
:104DC00000038000038000038000038000010000D6
:104DD00001000000000000000003800003800000CC
:104DE00000000000000000000000000000000000C3
:104DF000000000000000000000000000000E700035
:104E00000E70000E70000420000420000420000436
:104E10002000000000000000000000000000000072
:104E20000000000000000000000000000000000082
:104E30000000000000000000000000000000000072
:104E40000000066000066000066000066000066064
:104E5000003FF8003FF8000660000CC0003FF8007B
:104E60003FF8000CC0000CC0000CC0000CC0000CCF
:104E7000C000000000000000000000000000000072
:104E80000000000000000001800001800007B00069
:104E90000FF0001870001870001C00000F80000751
:104EA000E00000F0001830001C30001C70001FE013
:104EB000001BC00001800001800001800001800013
:104EC00000000000000000000000000000000000E2
:104ED00000000780000FC0001CE000186000186090
:104EE000001CE0000FF80007E0001FF0000738008A
:104EF00006180006180007380003F00001E0000063
:104F000000000000000000000000000000000000A1
:104F10000000000000000000000000000000000091
:104F200003F00007F0000C60000C00000C0000060D
:104F300000000700000F9C001DFC0018F000187016
:104F4000000FFC0007DC0000000000000000000073
:104F50000000000000000000000000000000000051
:104F600000000000000380000380000380000100B7
:104F7000000100000100000100000000000000002E
:104F80000000000000000000000000000000000021
:104F90000000000000000000000000000000000011
:104FA00000000000000000000000001800003800B1
:104FB00000700000F00000E00000E00001C000010F
:104FC000C00001C00001C00001C00001C00000E03D
:104FD0000000E000007000007000003800001800C1
:104FE00000000000000000000000000000000000C1
:104FF00000001800001C00000E00000E000007005A
:10500000000700000380000380000380000380008D
:105010000380000380000700000700000F00000E5F
:1050200000001C000018000000000000000000004C
:10503000000000000000000000000180000180006E
:105040000180001DB8001FF80007E00003C0000346
:10505000C0000660000660000000000000000000C4
:105060000000000000000000000000000000000040
:105070000000000000000000000000000000000030
:10508000000000000000000001800001800001809D
:10509000000180000180003FFC003FFC0001800017
:1050A00001800001800001800001800000000000FC
:1050B00000000000000000000000000000000000F0
:1050C00000000000000000000000000000000000E0
:1050D00000000000000000000000000000000000D0
:1050E000000000000000000000000000000000E0E0
:1050F0000000C00001C0000180000180000300002A
:10510000030000000000000000000000000000009C
:10511000000000000000000000000000000000008F
:10512000000000000000001FF8001FF80000000051
:10513000000000000000000000000000000000006F
:10514000000000000000000000000000000000005F
:10515000000000000000000000000000000000004F
:10516000000000000000000000000000000000003F
:10517000000000000000000000000000000003C06C
:105180000003C00003C00000000000000000000099
:1051900000000000000000000000000000180000F7
:1051A000180000380000300000700000600000604F
:1051B0000000C00000C0000180000180000300006A
:1051C0000300000600000600000E00000C00001C9A
:1051D000000018000018000000000000000000009F
:1051E0000000000000000000000003C00007E00015
:1051F0000C30000C3000181800181800181800188F
:1052000018001818001818001818000C30000C307E
:105210000007E00003C000000000000000000000E4
:10522000000000000000000000000000000000007E
:1052300000000080000780001F80001D80000180AA
:1052400000018000018000018000018000018000D9
:105250000180000180000180001FF8001FF800009D
:10526000000000000000000000000000000000003E
:105270000000000000000000000007C0001FF00058
:1052800038300030180030180000180000300000DE
:10529000600001C0000380000600000C0000180040
:1052A000003FF8003FF80000000000000000000090
:1052B00000000000000000000000000000000000EE
:1052C000000003C0000FE0000C7000003000003050
:1052D0000000600003C00003E00000700000180040
:1052E0000018000018001838001FF0000FC0000060
:1052F00000000000000000000000000000000000AE
:105300000000000000000000000000E00001E000DC
:1053100001E0000360000660000660000C60000C05
:1053200060001860003060003FF8003FF800006047
:105330000003F80003F80000000000000000000077
:10534000000000000000000000000000000000005D
:1053500000001FF0001FF0001800001800001800E7
:10536000001BC0001FF0001C3000001800001800D7
:105370000018000018003030003FF0000FC000009F
:10538000000000000000000000000000000000001D
:105390000000000000000000000000F80003F8001A
:1053A0000700000E00000C00001800001BC0001FCA
:1053B000F0001C30001818001818001818000C38DD
:1053C000000FF00003E000000000000000000000FB
:1053D00000000000000000000000000000000000CD
:1053E00000001FF8001FF8001818001838000030DF
:1053F0000000300000700000600000600000E0006D
:1054000000C00000C00001C0000180000180000059
:10541000000000000000000000000000000000008C
:105420000000000000000000000007E0000FF00096
:105430001C38001818001818000C300007E000078E
:10544000E0000C30001818001818001818001C385C
:10545000000FF00007E00000000000000000000066
:10546000000000000000000000000000000000003C
:10547000000007C0000FF0001C30001818001818BA
:10548000001818000C38000FF80003D800001800AE
:1054900000300000700000E0001FC0001F0000008E
:1054A00000000000000000000000000000000000FC
:1054B00000000000000000000000000000000000EC
:1054C00000000000000003C00003C00003C0000093
:1054D000000000000000000000000000000003C009
:1054E0000003C00003C00000000000000000000036
:1054F00000000000000000000000000000000000AC
:10550000000000000000000000000000000000F0AB
:105510000000F00000F000000000000000000000AB
:1055200000000000E00001C00001800001800003D5
:105530000000020000000000000000000000000069
:10554000000000000000000000000000000000005B
:10555000001C00003C0000F00003C0000F00003CF5
:105560000000F000003C00000F000003C00000F04D
:1055700000003C00001C00000000000000000000D3
:10558000000000000000000000000000000000001B
:10559000000000000000000000000000000000000B
:1055A000007FFC007FFC000000000000007FFC008A
:1055B0007FFC000000000000000000000000000070
:1055C00000000000000000000000000000000000DB
:1055D00000000000000000000000000000000000CB
:1055E0007000007800001E000007800001E000004D
:1055F0007800001E0000780001E0000780001E0017
:1056000000780000700000000000000000000000B2
:10561000000000000000000000000000000000008A
:10562000000000000007C0000FE0001870001830F4
:105630000018300000700000E00003C0000380008C
:105640000300000000000000000700000700000049
:10565000000000000000000000000000000000004A
:105660000000000000000000000003E00007F00060
:105670000E38000C180018780018F80019D8001916
:10568000980019980019980018F800187800180068
:10569000000C00000E180007F80003E000000000F6
:1056A00000000000000000000000000000000000FA
:1056B00000000000001F80001FC00001C000036048
:1056C000000360000630000630000C30000FF800C8
:1056D0001FF800180C00300C00FC7F00FC7F00005D
:1056E00000000000000000000000000000000000BA
:1056F000000000000000000000000000007FE0004B
:105700007FF0001838001818001818001838001F0B
:10571000F0001FF800181C00180C00180C00180CE2
:10572000007FF8007FF00000000000000000000093
:105730000000000000000000000000000000000069
:10574000000000000003EC000FFC001C1C00180C03
:1057500000300C003000003000003000003000004D
:10576000300000180C001C1C000FF80003F00000B3
:105770000000000000000000000000000000000029
:10578000000000000000000000000000007FC000DA
:105790007FF000183800181800180C00180C0018BA
:1057A0000C00180C00180C00180C00181800183801
:1057B000007FF0007FE0000000000000000000001B
:1057C00000000000000000000000000000000000D9
:1057D00000000000007FF8007FF80018180018187B
:1057E000001998001980001F80001F800019800098
:1057F0001998001818001818007FF8007FF80000AA
:105800000000000000000000000000000000000098
:10581000000000000000000000000000003FFC004D
:105820003FFC000C0C000C0C000CCC000CC0000F5A
:10583000C0000FC0000CC0000CC0000C00000C0029
:10584000003FC0003FC0000000000000000000005A
:105850000000000000000000000000000000000048
:10586000000000000003EC000FFC001C1C00180CE2
:1058700000300C0030000030000030FE0030FE0030
:10588000300C00380C001C1C000FFC0003F0000062
:105890000000000000000000000000000000000008
:1058A000000000000000000000000000007E7E00FC
:1058B0007E7E001818001818001818001818001F0D
:1058C000F8001FF800181800181800181800181809
:1058D000007E7E007E7E00000000000000000000D0
:1058E00000000000000000000000000000000000B8
:1058F00000000000001FF8001FF800018000018078
:105900000001800001800001800001800001800012
:105910000180000180000180001FF8001FF80000D6
:105920000000000000000000000000000000000077
:105930000000000000000000000000000007FE0062
:1059400007FE000030000030000030000030000092
:105950003000303000303000303000303000306007
:10596000003FE0000F800000000000000000000089
:105970000000000000000000000000000000000027
:1059800000000000007F3E007F3E001830001860DD
:105990000018C0001980001B80001FC0001CE00020
:1059A0001870001830001838007F1F007F1F00009B
:1059B00000000000000000000000000000000000E7
:1059C000000000000000000000000000007F8000D8
:1059D0007F80000C00000C00000C00000C00000C8C
:1059E00000000C00000C0C000C0C000C0C000C0C4B
:1059F000007FFC007FFC00000000000000000000B1
:105A00000000000000000000000000000000000096
:105A10000000000000F00F00F81F00381C003C3CA4
:105A2000003C3C00366C00366C0033CC0033CC00BC
:105A3000318C00300C00300C00FE7F00FE7F000037
:105A40000000000000000000000000000000000056
:105A50000000000000000000000000000078FE00D0
:105A600078FE001C18001E18001F18001B18001BD1
:105A7000980019D80018D80018F8001878001838BD
:105A8000007F18007F1800000000000000000000E8
:105A90000000000000000000000000000000000006
:105AA000000000000003C0000FF0001C38001818B0
:105AB00000381C00300C00300C00300C00300C00A2
:105AC000381C001818001C38000FF00003C000003C
:105AD00000000000000000000000000000000000C6
